{
  "_format": "hh-sol-artifact-1",
  "contractName": "AssetManager",
  "sourceName": "contracts/AssetManager.sol",
  "abi": [
    {
      "inputs": [
        {
          "internalType": "uint256",
          "name": "",
          "type": "uint256"
        }
      ],
      "name": "assetAddresses",
      "outputs": [
        {
          "internalType": "address",
          "name": "",
          "type": "address"
        }
      ],
      "stateMutability": "view",
      "type": "function"
    },
    {
      "inputs": [],
      "name": "assetsLength",
      "outputs": [
        {
          "internalType": "uint256",
          "name": "",
          "type": "uint256"
        }
      ],
      "stateMutability": "view",
      "type": "function"
    },
    {
      "inputs": [
        {
          "internalType": "string",
          "name": "name",
          "type": "string"
        },
        {
          "internalType": "string",
          "name": "symbol",
          "type": "string"
        },
        {
          "internalType": "uint256",
          "name": "openingTime",
          "type": "uint256"
        },
        {
          "internalType": "uint256",
          "name": "closingTime",
          "type": "uint256"
        },
        {
          "internalType": "uint256",
          "name": "resultTime",
          "type": "uint256"
        },
        {
          "internalType": "uint256",
          "name": "betPrice",
          "type": "uint256"
        }
      ],
      "name": "createAsset",
      "outputs": [
        {
          "internalType": "address",
          "name": "",
          "type": "address"
        }
      ],
      "stateMutability": "nonpayable",
      "type": "function"
    },
    {
      "inputs": [],
      "name": "getAllAssets",
      "outputs": [
        {
          "internalType": "address[]",
          "name": "",
          "type": "address[]"
        }
      ],
      "stateMutability": "view",
      "type": "function"
    },
    {
      "inputs": [
        {
          "internalType": "address",
          "name": "assetAddress",
          "type": "address"
        }
      ],
      "name": "getAssetDetails",
      "outputs": [
        {
          "internalType": "string",
          "name": "name",
          "type": "string"
        },
        {
          "internalType": "string",
          "name": "symbol",
          "type": "string"
        },
        {
          "internalType": "uint256",
          "name": "openingTime",
          "type": "uint256"
        },
        {
          "internalType": "uint256",
          "name": "closingTime",
          "type": "uint256"
        },
        {
          "internalType": "uint256",
          "name": "resultTime",
          "type": "uint256"
        },
        {
          "internalType": "uint256",
          "name": "betPrice",
          "type": "uint256"
        },
        {
          "internalType": "address",
          "name": "betSetter",
          "type": "address"
        },
        {
          "internalType": "uint256",
          "name": "totalMoney",
          "type": "uint256"
        }
      ],
      "stateMutability": "view",
      "type": "function"
    }
  ],
  "bytecode": "0x608060405234801561001057600080fd5b50612d8e806100206000396000f3fe60806040523480156200001157600080fd5b50600436106200005e5760003560e01c80632acada4d14620000635780639c9b64511462000085578063a6df16d714620000c2578063d07bf89c14620000f8578063f50477a2146200012e575b600080fd5b6200006d62000150565b6040516200007c9190620007c2565b60405180910390f35b620000a360048036038101906200009d91906200082b565b620001e0565b604051620000b998979695949392919062000923565b60405180910390f35b620000e06004803603810190620000da9190620009f0565b620005a7565b604051620000ef919062000a22565b60405180910390f35b62000116600480360381019062000110919062000b90565b620005e7565b60405162000125919062000a22565b60405180910390f35b62000138620006a6565b60405162000147919062000c6a565b60405180910390f35b60606000805480602002602001604051908101604052809291908181526020018280548015620001d657602002820191906000526020600020905b8160009054906101000a900473ffffffffffffffffffffffffffffffffffffffff1673ffffffffffffffffffffffffffffffffffffffff16815260200190600101908083116200018b575b5050505050905090565b60608060008060008060008060008990508073ffffffffffffffffffffffffffffffffffffffff166306fdde036040518163ffffffff1660e01b8152600401600060405180830381865afa1580156200023d573d6000803e3d6000fd5b505050506040513d6000823e3d601f19601f8201168201806040525081019062000268919062000d05565b8173ffffffffffffffffffffffffffffffffffffffff166395d89b416040518163ffffffff1660e01b8152600401600060405180830381865afa158015620002b4573d6000803e3d6000fd5b505050506040513d6000823e3d601f19601f82011682018060405250810190620002df919062000d05565b8273ffffffffffffffffffffffffffffffffffffffff1663b7a8807c6040518163ffffffff1660e01b8152600401602060405180830381865afa1580156200032b573d6000803e3d6000fd5b505050506040513d601f19601f8201168201806040525081019062000351919062000d6d565b8373ffffffffffffffffffffffffffffffffffffffff16634b6753bc6040518163ffffffff1660e01b8152600401602060405180830381865afa1580156200039d573d6000803e3d6000fd5b505050506040513d601f19601f82011682018060405250810190620003c3919062000d6d565b8473ffffffffffffffffffffffffffffffffffffffff166393a92e8b6040518163ffffffff1660e01b8152600401602060405180830381865afa1580156200040f573d6000803e3d6000fd5b505050506040513d601f19601f8201168201806040525081019062000435919062000d6d565b8573ffffffffffffffffffffffffffffffffffffffff1663db5ea8926040518163ffffffff1660e01b8152600401602060405180830381865afa15801562000481573d6000803e3d6000fd5b505050506040513d601f19601f82011682018060405250810190620004a7919062000d6d565b8673ffffffffffffffffffffffffffffffffffffffff1663950fb37d6040518163ffffffff1660e01b8152600401602060405180830381865afa158015620004f3573d6000803e3d6000fd5b505050506040513d601f19601f8201168201806040525081019062000519919062000db6565b8773ffffffffffffffffffffffffffffffffffffffff1663054ffab66040518163ffffffff1660e01b8152600401602060405180830381865afa15801562000565573d6000803e3d6000fd5b505050506040513d601f19601f820116820180604052508101906200058b919062000d6d565b9850985098509850985098509850985050919395975091939597565b60008181548110620005b857600080fd5b906000526020600020016000915054906101000a900473ffffffffffffffffffffffffffffffffffffffff1681565b600080878787878787604051620005fe90620006b2565b6200060f9695949392919062000de8565b604051809103906000f0801580156200062c573d6000803e3d6000fd5b50905060008190506000819080600181540180825580915050600190039060005260206000200160009091909190916101000a81548173ffffffffffffffffffffffffffffffffffffffff021916908373ffffffffffffffffffffffffffffffffffffffff16021790555080925050509695505050505050565b60008080549050905090565b611ef58062000e6483390190565b600081519050919050565b600082825260208201905092915050565b6000819050602082019050919050565b600073ffffffffffffffffffffffffffffffffffffffff82169050919050565b60006200071982620006ec565b9050919050565b6200072b816200070c565b82525050565b60006200073f838362000720565b60208301905092915050565b6000602082019050919050565b60006200076582620006c0565b620007718185620006cb565b93506200077e83620006dc565b8060005b83811015620007b557815162000799888262000731565b9750620007a6836200074b565b92505060018101905062000782565b5085935050505092915050565b60006020820190508181036000830152620007de818462000758565b905092915050565b6000604051905090565b600080fd5b600080fd5b62000805816200070c565b81146200081157600080fd5b50565b6000813590506200082581620007fa565b92915050565b600060208284031215620008445762000843620007f0565b5b6000620008548482850162000814565b91505092915050565b600081519050919050565b600082825260208201905092915050565b60005b83811015620008995780820151818401526020810190506200087c565b60008484015250505050565b6000601f19601f8301169050919050565b6000620008c3826200085d565b620008cf818562000868565b9350620008e181856020860162000879565b620008ec81620008a5565b840191505092915050565b6000819050919050565b6200090c81620008f7565b82525050565b6200091d816200070c565b82525050565b600061010082019050818103600083015262000940818b620008b6565b9050818103602083015262000956818a620008b6565b905062000967604083018962000901565b62000976606083018862000901565b62000985608083018762000901565b6200099460a083018662000901565b620009a360c083018562000912565b620009b260e083018462000901565b9998505050505050505050565b620009ca81620008f7565b8114620009d657600080fd5b50565b600081359050620009ea81620009bf565b92915050565b60006020828403121562000a095762000a08620007f0565b5b600062000a1984828501620009d9565b91505092915050565b600060208201905062000a39600083018462000912565b92915050565b600080fd5b600080fd5b7f4e487b7100000000000000000000000000000000000000000000000000000000600052604160045260246000fd5b62000a8382620008a5565b810181811067ffffffffffffffff8211171562000aa55762000aa462000a49565b5b80604052505050565b600062000aba620007e6565b905062000ac8828262000a78565b919050565b600067ffffffffffffffff82111562000aeb5762000aea62000a49565b5b62000af682620008a5565b9050602081019050919050565b82818337600083830152505050565b600062000b2962000b238462000acd565b62000aae565b90508281526020810184848401111562000b485762000b4762000a44565b5b62000b5584828562000b03565b509392505050565b600082601f83011262000b755762000b7462000a3f565b5b813562000b8784826020860162000b12565b91505092915050565b60008060008060008060c0878903121562000bb05762000baf620007f0565b5b600087013567ffffffffffffffff81111562000bd15762000bd0620007f5565b5b62000bdf89828a0162000b5d565b965050602087013567ffffffffffffffff81111562000c035762000c02620007f5565b5b62000c1189828a0162000b5d565b955050604062000c2489828a01620009d9565b945050606062000c3789828a01620009d9565b935050608062000c4a89828a01620009d9565b92505060a062000c5d89828a01620009d9565b9150509295509295509295565b600060208201905062000c81600083018462000901565b92915050565b600062000c9e62000c988462000acd565b62000aae565b90508281526020810184848401111562000cbd5762000cbc62000a44565b5b62000cca84828562000879565b509392505050565b600082601f83011262000cea5762000ce962000a3f565b5b815162000cfc84826020860162000c87565b91505092915050565b60006020828403121562000d1e5762000d1d620007f0565b5b600082015167ffffffffffffffff81111562000d3f5762000d3e620007f5565b5b62000d4d8482850162000cd2565b91505092915050565b60008151905062000d6781620009bf565b92915050565b60006020828403121562000d865762000d85620007f0565b5b600062000d968482850162000d56565b91505092915050565b60008151905062000db081620007fa565b92915050565b60006020828403121562000dcf5762000dce620007f0565b5b600062000ddf8482850162000d9f565b91505092915050565b600060c082019050818103600083015262000e048189620008b6565b9050818103602083015262000e1a8188620008b6565b905062000e2b604083018762000901565b62000e3a606083018662000901565b62000e49608083018562000901565b62000e5860a083018462000901565b97965050505050505056fe60806040523480156200001157600080fd5b5060405162001ef538038062001ef5833981810160405281019062000037919062000382565b306000806101000a81548173ffffffffffffffffffffffffffffffffffffffff021916908373ffffffffffffffffffffffffffffffffffffffff16021790555085600190816200008891906200069d565b5084600290816200009a91906200069d565b508360038190555082600481905550816005819055508060068190555033600760006101000a81548173ffffffffffffffffffffffffffffffffffffffff021916908373ffffffffffffffffffffffffffffffffffffffff160217905550600060088190555060008054906101000a900473ffffffffffffffffffffffffffffffffffffffff1673ffffffffffffffffffffffffffffffffffffffff167f392f38ce3f264c0d1d409cff712e573439bc2e53a7eefc647cd35819bf8012b760016002600354600454600554600654600760009054906101000a900473ffffffffffffffffffffffffffffffffffffffff16604051620001a097969594939291906200087b565b60405180910390a250505050505062000906565b6000604051905090565b600080fd5b600080fd5b600080fd5b600080fd5b6000601f19601f8301169050919050565b7f4e487b7100000000000000000000000000000000000000000000000000000000600052604160045260246000fd5b6200021d82620001d2565b810181811067ffffffffffffffff821117156200023f576200023e620001e3565b5b80604052505050565b600062000254620001b4565b905062000262828262000212565b919050565b600067ffffffffffffffff821115620002855762000284620001e3565b5b6200029082620001d2565b9050602081019050919050565b60005b83811015620002bd578082015181840152602081019050620002a0565b60008484015250505050565b6000620002e0620002da8462000267565b62000248565b905082815260208101848484011115620002ff57620002fe620001cd565b5b6200030c8482856200029d565b509392505050565b600082601f8301126200032c576200032b620001c8565b5b81516200033e848260208601620002c9565b91505092915050565b6000819050919050565b6200035c8162000347565b81146200036857600080fd5b50565b6000815190506200037c8162000351565b92915050565b60008060008060008060c08789031215620003a257620003a1620001be565b5b600087015167ffffffffffffffff811115620003c357620003c2620001c3565b5b620003d189828a0162000314565b965050602087015167ffffffffffffffff811115620003f557620003f4620001c3565b5b6200040389828a0162000314565b95505060406200041689828a016200036b565b94505060606200042989828a016200036b565b93505060806200043c89828a016200036b565b92505060a06200044f89828a016200036b565b9150509295509295509295565b600081519050919050565b7f4e487b7100000000000000000000000000000000000000000000000000000000600052602260045260246000fd5b60006002820490506001821680620004af57607f821691505b602082108103620004c557620004c462000467565b5b50919050565b60008190508160005260206000209050919050565b60006020601f8301049050919050565b600082821b905092915050565b6000600883026200052f7fffffffffffffffffffffffffffffffffffffffffffffffffffffffffffffffff82620004f0565b6200053b8683620004f0565b95508019841693508086168417925050509392505050565b6000819050919050565b60006200057e62000578620005728462000347565b62000553565b62000347565b9050919050565b6000819050919050565b6200059a836200055d565b620005b2620005a98262000585565b848454620004fd565b825550505050565b600090565b620005c9620005ba565b620005d68184846200058f565b505050565b5b81811015620005fe57620005f2600082620005bf565b600181019050620005dc565b5050565b601f8211156200064d576200061781620004cb565b6200062284620004e0565b8101602085101562000632578190505b6200064a6200064185620004e0565b830182620005db565b50505b505050565b600082821c905092915050565b6000620006726000198460080262000652565b1980831691505092915050565b60006200068d83836200065f565b9150826002028217905092915050565b620006a8826200045c565b67ffffffffffffffff811115620006c457620006c3620001e3565b5b620006d0825462000496565b620006dd82828562000602565b600060209050601f83116001811462000715576000841562000700578287015190505b6200070c85826200067f565b8655506200077c565b601f1984166200072586620004cb565b60005b828110156200074f5784890151825560018201915060208501945060208101905062000728565b868310156200076f57848901516200076b601f8916826200065f565b8355505b6001600288020188555050505b505050505050565b600082825260208201905092915050565b60008154620007a48162000496565b620007b0818662000784565b94506001821660008114620007ce5760018114620007e5576200081c565b60ff1983168652811515602002860193506200081c565b620007f085620004cb565b60005b838110156200081457815481890152600182019150602081019050620007f3565b808801955050505b50505092915050565b620008308162000347565b82525050565b600073ffffffffffffffffffffffffffffffffffffffff82169050919050565b6000620008638262000836565b9050919050565b620008758162000856565b82525050565b600060e082019050818103600083015262000897818a62000795565b90508181036020830152620008ad818962000795565b9050620008be604083018862000825565b620008cd606083018762000825565b620008dc608083018662000825565b620008eb60a083018562000825565b620008fa60c08301846200086a565b98975050505050505050565b6115df80620009166000396000f3fe6080604052600436106101095760003560e01c8063950fb37d11610095578063b84c824611610064578063b84c824614610335578063c47f00271461035e578063cfd8a17514610387578063db5ea892146103b2578063f90f4560146103dd57610109565b8063950fb37d1461028b57806395d89b41146102b6578063abdd11a8146102e1578063b7a8807c1461030a57610109565b806329354cf4116100dc57806329354cf4146101b85780634b6753bc146101e15780634b89c41d1461020c57806387da21e31461023557806393a92e8b1461026057610109565b8063054ffab61461010e57806306fdde03146101395780631ba46cfd1461016457806321c286831461018f575b600080fd5b34801561011a57600080fd5b506101236103e7565b6040516101309190610a7e565b60405180910390f35b34801561014557600080fd5b5061014e6103f1565b60405161015b9190610b29565b60405180910390f35b34801561017057600080fd5b5061017961047f565b6040516101869190610b8c565b60405180910390f35b34801561019b57600080fd5b506101b660048036038101906101b19190610be7565b6104a3565b005b3480156101c457600080fd5b506101df60048036038101906101da9190610be7565b61053d565b005b3480156101ed57600080fd5b506101f66105d7565b6040516102039190610a7e565b60405180910390f35b34801561021857600080fd5b50610233600480360381019061022e9190610be7565b6105dd565b005b34801561024157600080fd5b5061024a610677565b6040516102579190610a7e565b60405180910390f35b34801561026c57600080fd5b5061027561067d565b6040516102829190610a7e565b60405180910390f35b34801561029757600080fd5b506102a0610683565b6040516102ad9190610b8c565b60405180910390f35b3480156102c257600080fd5b506102cb6106a9565b6040516102d89190610b29565b60405180910390f35b3480156102ed57600080fd5b5061030860048036038101906103039190610be7565b610737565b005b34801561031657600080fd5b5061031f6107d1565b60405161032c9190610a7e565b60405180910390f35b34801561034157600080fd5b5061035c60048036038101906103579190610d49565b6107d7565b005b34801561036a57600080fd5b5061038560048036038101906103809190610d49565b61087a565b005b34801561039357600080fd5b5061039c61091d565b6040516103a99190610a7e565b60405180910390f35b3480156103be57600080fd5b506103c7610923565b6040516103d49190610a7e565b60405180910390f35b6103e561092d565b005b6000600854905090565b600180546103fe90610dc1565b80601f016020809104026020016040519081016040528092919081815260200182805461042a90610dc1565b80156104775780601f1061044c57610100808354040283529160200191610477565b820191906000526020600020905b81548152906001019060200180831161045a57829003601f168201915b505050505081565b60008054906101000a900473ffffffffffffffffffffffffffffffffffffffff1681565b600760009054906101000a900473ffffffffffffffffffffffffffffffffffffffff1673ffffffffffffffffffffffffffffffffffffffff163373ffffffffffffffffffffffffffffffffffffffff1614610533576040517f08c379a000000000000000000000000000000000000000000000000000000000815260040161052a90610e64565b60405180910390fd5b8060068190555050565b600760009054906101000a900473ffffffffffffffffffffffffffffffffffffffff1673ffffffffffffffffffffffffffffffffffffffff163373ffffffffffffffffffffffffffffffffffffffff16146105cd576040517f08c379a00000000000000000000000000000000000000000000000000000000081526004016105c490610ef6565b60405180910390fd5b8060058190555050565b60045481565b600760009054906101000a900473ffffffffffffffffffffffffffffffffffffffff1673ffffffffffffffffffffffffffffffffffffffff163373ffffffffffffffffffffffffffffffffffffffff161461066d576040517f08c379a000000000000000000000000000000000000000000000000000000000815260040161066490610f88565b60405180910390fd5b8060048190555050565b60085481565b60055481565b600760009054906101000a900473ffffffffffffffffffffffffffffffffffffffff1681565b600280546106b690610dc1565b80601f01602080910402602001604051908101604052809291908181526020018280546106e290610dc1565b801561072f5780601f106107045761010080835404028352916020019161072f565b820191906000526020600020905b81548152906001019060200180831161071257829003601f168201915b505050505081565b600760009054906101000a900473ffffffffffffffffffffffffffffffffffffffff1673ffffffffffffffffffffffffffffffffffffffff163373ffffffffffffffffffffffffffffffffffffffff16146107c7576040517f08c379a00000000000000000000000000000000000000000000000000000000081526004016107be9061101a565b60405180910390fd5b8060038190555050565b60035481565b600760009054906101000a900473ffffffffffffffffffffffffffffffffffffffff1673ffffffffffffffffffffffffffffffffffffffff163373ffffffffffffffffffffffffffffffffffffffff1614610867576040517f08c379a000000000000000000000000000000000000000000000000000000000815260040161085e906110ac565b60405180910390fd5b80600290816108769190611278565b5050565b600760009054906101000a900473ffffffffffffffffffffffffffffffffffffffff1673ffffffffffffffffffffffffffffffffffffffff163373ffffffffffffffffffffffffffffffffffffffff161461090a576040517f08c379a0000000000000000000000000000000000000000000000000000000008152600401610901906113bc565b60405180910390fd5b80600190816109199190611278565b5050565b60065481565b6000600654905090565b600354421015610972576040517f08c379a000000000000000000000000000000000000000000000000000000000815260040161096990611428565b60405180910390fd5b6004544211156109b7576040517f08c379a00000000000000000000000000000000000000000000000000000000081526004016109ae90611494565b60405180910390fd5b6006543410156109fc576040517f08c379a00000000000000000000000000000000000000000000000000000000081526004016109f390611526565b60405180910390fd5b3460086000828254610a0e9190611575565b925050819055503373ffffffffffffffffffffffffffffffffffffffff167f43e08d78302cdf9c94e1ffd293c2a3696139ee41cf3199b6f5eed9c7f6cc609034604051610a5b9190610a7e565b60405180910390a2565b6000819050919050565b610a7881610a65565b82525050565b6000602082019050610a936000830184610a6f565b92915050565b600081519050919050565b600082825260208201905092915050565b60005b83811015610ad3578082015181840152602081019050610ab8565b60008484015250505050565b6000601f19601f8301169050919050565b6000610afb82610a99565b610b058185610aa4565b9350610b15818560208601610ab5565b610b1e81610adf565b840191505092915050565b60006020820190508181036000830152610b438184610af0565b905092915050565b600073ffffffffffffffffffffffffffffffffffffffff82169050919050565b6000610b7682610b4b565b9050919050565b610b8681610b6b565b82525050565b6000602082019050610ba16000830184610b7d565b92915050565b6000604051905090565b600080fd5b600080fd5b610bc481610a65565b8114610bcf57600080fd5b50565b600081359050610be181610bbb565b92915050565b600060208284031215610bfd57610bfc610bb1565b5b6000610c0b84828501610bd2565b91505092915050565b600080fd5b600080fd5b7f4e487b7100000000000000000000000000000000000000000000000000000000600052604160045260246000fd5b610c5682610adf565b810181811067ffffffffffffffff82111715610c7557610c74610c1e565b5b80604052505050565b6000610c88610ba7565b9050610c948282610c4d565b919050565b600067ffffffffffffffff821115610cb457610cb3610c1e565b5b610cbd82610adf565b9050602081019050919050565b82818337600083830152505050565b6000610cec610ce784610c99565b610c7e565b905082815260208101848484011115610d0857610d07610c19565b5b610d13848285610cca565b509392505050565b600082601f830112610d3057610d2f610c14565b5b8135610d40848260208601610cd9565b91505092915050565b600060208284031215610d5f57610d5e610bb1565b5b600082013567ffffffffffffffff811115610d7d57610d7c610bb6565b5b610d8984828501610d1b565b91505092915050565b7f4e487b7100000000000000000000000000000000000000000000000000000000600052602260045260246000fd5b60006002820490506001821680610dd957607f821691505b602082108103610dec57610deb610d92565b5b50919050565b7f4f6e6c79206265745365747465722063616e207570646174652074686520626560008201527f7420707269636500000000000000000000000000000000000000000000000000602082015250565b6000610e4e602783610aa4565b9150610e5982610df2565b604082019050919050565b60006020820190508181036000830152610e7d81610e41565b9050919050565b7f4f6e6c79206265745365747465722063616e207570646174652074686520726560008201527f73756c742074696d650000000000000000000000000000000000000000000000602082015250565b6000610ee0602983610aa4565b9150610eeb82610e84565b604082019050919050565b60006020820190508181036000830152610f0f81610ed3565b9050919050565b7f4f6e6c79206265745365747465722063616e207570646174652074686520636c60008201527f6f73696e672074696d6500000000000000000000000000000000000000000000602082015250565b6000610f72602a83610aa4565b9150610f7d82610f16565b604082019050919050565b60006020820190508181036000830152610fa181610f65565b9050919050565b7f4f6e6c79206265745365747465722063616e2075706461746520746865206f7060008201527f656e696e672074696d6500000000000000000000000000000000000000000000602082015250565b6000611004602a83610aa4565b915061100f82610fa8565b604082019050919050565b6000602082019050818103600083015261103381610ff7565b9050919050565b7f4f6e6c79206265745365747465722063616e207570646174652074686520737960008201527f6d626f6c00000000000000000000000000000000000000000000000000000000602082015250565b6000611096602483610aa4565b91506110a18261103a565b604082019050919050565b600060208201905081810360008301526110c581611089565b9050919050565b60008190508160005260206000209050919050565b60006020601f8301049050919050565b600082821b905092915050565b60006008830261112e7fffffffffffffffffffffffffffffffffffffffffffffffffffffffffffffffff826110f1565b61113886836110f1565b95508019841693508086168417925050509392505050565b6000819050919050565b600061117561117061116b84610a65565b611150565b610a65565b9050919050565b6000819050919050565b61118f8361115a565b6111a361119b8261117c565b8484546110fe565b825550505050565b600090565b6111b86111ab565b6111c3818484611186565b505050565b5b818110156111e7576111dc6000826111b0565b6001810190506111c9565b5050565b601f82111561122c576111fd816110cc565b611206846110e1565b81016020851015611215578190505b611229611221856110e1565b8301826111c8565b50505b505050565b600082821c905092915050565b600061124f60001984600802611231565b1980831691505092915050565b6000611268838361123e565b9150826002028217905092915050565b61128182610a99565b67ffffffffffffffff81111561129a57611299610c1e565b5b6112a48254610dc1565b6112af8282856111eb565b600060209050601f8311600181146112e257600084156112d0578287015190505b6112da858261125c565b865550611342565b601f1984166112f0866110cc565b60005b82811015611318578489015182556001820191506020850194506020810190506112f3565b868310156113355784890151611331601f89168261123e565b8355505b6001600288020188555050505b505050505050565b7f4f6e6c79206265745365747465722063616e2075706461746520746865206e6160008201527f6d65000000000000000000000000000000000000000000000000000000000000602082015250565b60006113a6602283610aa4565b91506113b18261134a565b604082019050919050565b600060208201905081810360008301526113d581611399565b9050919050565b7f42657474696e6720686173206e6f742073746172746564207965740000000000600082015250565b6000611412601b83610aa4565b915061141d826113dc565b602082019050919050565b6000602082019050818103600083015261144181611405565b9050919050565b7f42657474696e672068617320656e646564000000000000000000000000000000600082015250565b600061147e601183610aa4565b915061148982611448565b602082019050919050565b600060208201905081810360008301526114ad81611471565b9050919050565b7f42657420616d6f756e74206973206c657373207468616e20746865206265742060008201527f7072696365000000000000000000000000000000000000000000000000000000602082015250565b6000611510602583610aa4565b915061151b826114b4565b604082019050919050565b6000602082019050818103600083015261153f81611503565b9050919050565b7f4e487b7100000000000000000000000000000000000000000000000000000000600052601160045260246000fd5b600061158082610a65565b915061158b83610a65565b92508282019050808211156115a3576115a2611546565b5b9291505056fea26469706673582212206433dcbe3201fd413b11b1a9cfb28ea1bacf9436dd59c3b5447199d15a46353264736f6c63430008180033a26469706673582212207e513fb825ba4ec1da6cc4351904540b11abe293ae9226b61f592d23114429cc64736f6c63430008180033",
  "linkReferences": {},
  "deployedLinkReferences": {}
}