{
  "_format": "hh-sol-artifact-1",
  "contractName": "Bet",
  "sourceName": "contracts/Bet.sol",
  "abi": [
    {
      "inputs": [
        {
          "internalType": "address",
          "name": "assetManagerAddress",
          "type": "address"
        }
      ],
      "stateMutability": "nonpayable",
      "type": "constructor"
    },
    {
      "inputs": [
        {
          "internalType": "uint256",
          "name": "sent",
          "type": "uint256"
        },
        {
          "internalType": "uint256",
          "name": "required",
          "type": "uint256"
        }
      ],
      "name": "IncorrectPaymentAmount",
      "type": "error"
    },
    {
      "anonymous": false,
      "inputs": [
        {
          "indexed": true,
          "internalType": "address",
          "name": "userAddress",
          "type": "address"
        },
        {
          "indexed": true,
          "internalType": "address",
          "name": "assetAddress",
          "type": "address"
        },
        {
          "indexed": false,
          "internalType": "uint256",
          "name": "amountPaid",
          "type": "uint256"
        },
        {
          "indexed": false,
          "internalType": "uint256",
          "name": "estimate",
          "type": "uint256"
        }
      ],
      "name": "BetPlaced",
      "type": "event"
    },
    {
      "anonymous": false,
      "inputs": [
        {
          "indexed": true,
          "internalType": "address",
          "name": "sender",
          "type": "address"
        },
        {
          "indexed": false,
          "internalType": "uint256",
          "name": "amount",
          "type": "uint256"
        }
      ],
      "name": "Deposit",
      "type": "event"
    },
    {
      "inputs": [],
      "name": "assetManager",
      "outputs": [
        {
          "internalType": "contract AssetManager",
          "name": "",
          "type": "address"
        }
      ],
      "stateMutability": "view",
      "type": "function"
    },
    {
      "inputs": [
        {
          "internalType": "uint256",
          "name": "",
          "type": "uint256"
        }
      ],
      "name": "bets",
      "outputs": [
        {
          "internalType": "address",
          "name": "userAddress",
          "type": "address"
        },
        {
          "internalType": "address",
          "name": "assetAddress",
          "type": "address"
        },
        {
          "internalType": "uint256",
          "name": "amountPaid",
          "type": "uint256"
        },
        {
          "internalType": "uint256",
          "name": "estimate",
          "type": "uint256"
        }
      ],
      "stateMutability": "view",
      "type": "function"
    },
    {
      "inputs": [],
      "name": "betsLength",
      "outputs": [
        {
          "internalType": "uint256",
          "name": "",
          "type": "uint256"
        }
      ],
      "stateMutability": "view",
      "type": "function"
    },
    {
      "inputs": [],
      "name": "getBalance",
      "outputs": [
        {
          "internalType": "uint256",
          "name": "",
          "type": "uint256"
        }
      ],
      "stateMutability": "view",
      "type": "function"
    },
    {
      "inputs": [
        {
          "internalType": "uint256",
          "name": "index",
          "type": "uint256"
        }
      ],
      "name": "getBet",
      "outputs": [
        {
          "internalType": "address",
          "name": "",
          "type": "address"
        },
        {
          "internalType": "address",
          "name": "",
          "type": "address"
        },
        {
          "internalType": "uint256",
          "name": "",
          "type": "uint256"
        },
        {
          "internalType": "uint256",
          "name": "",
          "type": "uint256"
        }
      ],
      "stateMutability": "view",
      "type": "function"
    },
    {
      "inputs": [
        {
          "internalType": "address",
          "name": "assetAddress",
          "type": "address"
        },
        {
          "internalType": "uint256",
          "name": "estimate",
          "type": "uint256"
        }
      ],
      "name": "setBet",
      "outputs": [],
      "stateMutability": "payable",
      "type": "function"
    },
    {
      "inputs": [],
      "name": "totalBalance",
      "outputs": [
        {
          "internalType": "uint256",
          "name": "",
          "type": "uint256"
        }
      ],
      "stateMutability": "view",
      "type": "function"
    },
    {
      "inputs": [
        {
          "internalType": "uint256",
          "name": "amount",
          "type": "uint256"
        }
      ],
      "name": "withdraw",
      "outputs": [],
      "stateMutability": "nonpayable",
      "type": "function"
    },
    {
      "stateMutability": "payable",
      "type": "receive"
    }
  ],
  "bytecode": "0x60806040523480156200001157600080fd5b5060405162001178380380620011788339818101604052810190620000379190620000e9565b80600160006101000a81548173ffffffffffffffffffffffffffffffffffffffff021916908373ffffffffffffffffffffffffffffffffffffffff160217905550506200011b565b600080fd5b600073ffffffffffffffffffffffffffffffffffffffff82169050919050565b6000620000b18262000084565b9050919050565b620000c381620000a4565b8114620000cf57600080fd5b50565b600081519050620000e381620000b8565b92915050565b6000602082840312156200010257620001016200007f565b5b60006200011284828501620000d2565b91505092915050565b61104d806200012b6000396000f3fe60806040526004361061007f5760003560e01c8063656b18531161004e578063656b1853146101c657806394217ad1146101e2578063ad7a672f1461020d578063bbd2e01e14610238576100ed565b8063061e494f146100f257806312065fe01461013257806322af00fa1461015d5780632e1a7d4d1461019d576100ed565b366100ed57346002600082825461009691906108d9565b925050819055503373ffffffffffffffffffffffffffffffffffffffff167fe1fffcc4923d04b559f4d29a8bfc6cda04eb5b0d3c460751c2402c5c5cc9109c346040516100e3919061091c565b60405180910390a2005b600080fd5b3480156100fe57600080fd5b5061011960048036038101906101149190610977565b610263565b60405161012994939291906109e5565b60405180910390f35b34801561013e57600080fd5b50610147610339565b604051610154919061091c565b60405180910390f35b34801561016957600080fd5b50610184600480360381019061017f9190610977565b610343565b60405161019494939291906109e5565b60405180910390f35b3480156101a957600080fd5b506101c460048036038101906101bf9190610977565b6103c3565b005b6101e060048036038101906101db9190610a56565b61046b565b005b3480156101ee57600080fd5b506101f7610868565b6040516102049190610af5565b60405180910390f35b34801561021957600080fd5b5061022261088e565b60405161022f919061091c565b60405180910390f35b34801561024457600080fd5b5061024d610894565b60405161025a919061091c565b60405180910390f35b60008060008060008054905085106102b0576040517f08c379a00000000000000000000000000000000000000000000000000000000081526004016102a790610b6d565b60405180910390fd5b60008086815481106102c5576102c4610b8d565b5b906000526020600020906004020190508060000160009054906101000a900473ffffffffffffffffffffffffffffffffffffffff168160010160009054906101000a900473ffffffffffffffffffffffffffffffffffffffff16826002015483600301549450945094509450509193509193565b6000600254905090565b6000818154811061035357600080fd5b90600052602060002090600402016000915090508060000160009054906101000a900473ffffffffffffffffffffffffffffffffffffffff16908060010160009054906101000a900473ffffffffffffffffffffffffffffffffffffffff16908060020154908060030154905084565b600254811115610408576040517f08c379a00000000000000000000000000000000000000000000000000000000081526004016103ff90610c2e565b60405180910390fd5b3373ffffffffffffffffffffffffffffffffffffffff166108fc829081150290604051600060405180830381858888f1935050505015801561044e573d6000803e3d6000fd5b5080600260008282546104619190610c4e565b9250508190555050565b600080600160009054906101000a900473ffffffffffffffffffffffffffffffffffffffff1673ffffffffffffffffffffffffffffffffffffffff16639c9b6451856040518263ffffffff1660e01b81526004016104c99190610c82565b600060405180830381865afa1580156104e6573d6000803e3d6000fd5b505050506040513d6000823e3d601f19601f8201168201806040525081019061050f9190610e28565b509650965050505050506000821161055c576040517f08c379a000000000000000000000000000000000000000000000000000000000815260040161055390610f62565b60405180910390fd5b600073ffffffffffffffffffffffffffffffffffffffff168173ffffffffffffffffffffffffffffffffffffffff16036105cb576040517f08c379a00000000000000000000000000000000000000000000000000000000081526004016105c290610fce565b60405180910390fd5b8134146106115734826040517f47af6acc000000000000000000000000000000000000000000000000000000008152600401610608929190610fee565b60405180910390fd5b600060405180608001604052803373ffffffffffffffffffffffffffffffffffffffff1681526020018673ffffffffffffffffffffffffffffffffffffffff168152602001348152602001858152509050600081908060018154018082558091505060019003906000526020600020906004020160009091909190915060008201518160000160006101000a81548173ffffffffffffffffffffffffffffffffffffffff021916908373ffffffffffffffffffffffffffffffffffffffff16021790555060208201518160010160006101000a81548173ffffffffffffffffffffffffffffffffffffffff021916908373ffffffffffffffffffffffffffffffffffffffff16021790555060408201518160020155606082015181600301555050346002600082825461074491906108d9565b925050819055508473ffffffffffffffffffffffffffffffffffffffff1663f90f4560346040518263ffffffff1660e01b81526004016000604051808303818588803b15801561079357600080fd5b505af11580156107a7573d6000803e3d6000fd5b50505050508473ffffffffffffffffffffffffffffffffffffffff163373ffffffffffffffffffffffffffffffffffffffff167f61e034d80d9bd9b8dcd5d07434c03615017de4a6a229fe18bb93863bd20341a8348760405161080b929190610fee565b60405180910390a33373ffffffffffffffffffffffffffffffffffffffff167fe1fffcc4923d04b559f4d29a8bfc6cda04eb5b0d3c460751c2402c5c5cc9109c34604051610859919061091c565b60405180910390a25050505050565b600160009054906101000a900473ffffffffffffffffffffffffffffffffffffffff1681565b60025481565b60008080549050905090565b6000819050919050565b7f4e487b7100000000000000000000000000000000000000000000000000000000600052601160045260246000fd5b60006108e4826108a0565b91506108ef836108a0565b9250828201905080821115610907576109066108aa565b5b92915050565b610916816108a0565b82525050565b6000602082019050610931600083018461090d565b92915050565b6000604051905090565b600080fd5b600080fd5b610954816108a0565b811461095f57600080fd5b50565b6000813590506109718161094b565b92915050565b60006020828403121561098d5761098c610941565b5b600061099b84828501610962565b91505092915050565b600073ffffffffffffffffffffffffffffffffffffffff82169050919050565b60006109cf826109a4565b9050919050565b6109df816109c4565b82525050565b60006080820190506109fa60008301876109d6565b610a0760208301866109d6565b610a14604083018561090d565b610a21606083018461090d565b95945050505050565b610a33816109c4565b8114610a3e57600080fd5b50565b600081359050610a5081610a2a565b92915050565b60008060408385031215610a6d57610a6c610941565b5b6000610a7b85828601610a41565b9250506020610a8c85828601610962565b9150509250929050565b6000819050919050565b6000610abb610ab6610ab1846109a4565b610a96565b6109a4565b9050919050565b6000610acd82610aa0565b9050919050565b6000610adf82610ac2565b9050919050565b610aef81610ad4565b82525050565b6000602082019050610b0a6000830184610ae6565b92915050565b600082825260208201905092915050565b7f42657420696e646578206f7574206f6620626f756e6473000000000000000000600082015250565b6000610b57601783610b10565b9150610b6282610b21565b602082019050919050565b60006020820190508181036000830152610b8681610b4a565b9050919050565b7f4e487b7100000000000000000000000000000000000000000000000000000000600052603260045260246000fd5b7f496e73756666696369656e742062616c616e636520696e2074686520636f6e7460008201527f7261637400000000000000000000000000000000000000000000000000000000602082015250565b6000610c18602483610b10565b9150610c2382610bbc565b604082019050919050565b60006020820190508181036000830152610c4781610c0b565b9050919050565b6000610c59826108a0565b9150610c64836108a0565b9250828203905081811115610c7c57610c7b6108aa565b5b92915050565b6000602082019050610c9760008301846109d6565b92915050565b600080fd5b600080fd5b6000601f19601f8301169050919050565b7f4e487b7100000000000000000000000000000000000000000000000000000000600052604160045260246000fd5b610cf082610ca7565b810181811067ffffffffffffffff82111715610d0f57610d0e610cb8565b5b80604052505050565b6000610d22610937565b9050610d2e8282610ce7565b919050565b600067ffffffffffffffff821115610d4e57610d4d610cb8565b5b610d5782610ca7565b9050602081019050919050565b60005b83811015610d82578082015181840152602081019050610d67565b60008484015250505050565b6000610da1610d9c84610d33565b610d18565b905082815260208101848484011115610dbd57610dbc610ca2565b5b610dc8848285610d64565b509392505050565b600082601f830112610de557610de4610c9d565b5b8151610df5848260208601610d8e565b91505092915050565b600081519050610e0d8161094b565b92915050565b600081519050610e2281610a2a565b92915050565b600080600080600080600080610100898b031215610e4957610e48610941565b5b600089015167ffffffffffffffff811115610e6757610e66610946565b5b610e738b828c01610dd0565b985050602089015167ffffffffffffffff811115610e9457610e93610946565b5b610ea08b828c01610dd0565b9750506040610eb18b828c01610dfe565b9650506060610ec28b828c01610dfe565b9550506080610ed38b828c01610dfe565b94505060a0610ee48b828c01610dfe565b93505060c0610ef58b828c01610e13565b92505060e0610f068b828c01610dfe565b9150509295985092959890939650565b7f426574207072696365206973206e6f7420736574206f7220696e76616c696400600082015250565b6000610f4c601f83610b10565b9150610f5782610f16565b602082019050919050565b60006020820190508181036000830152610f7b81610f3f565b9050919050565b7f496e76616c696420626574207365747465720000000000000000000000000000600082015250565b6000610fb8601283610b10565b9150610fc382610f82565b602082019050919050565b60006020820190508181036000830152610fe781610fab565b9050919050565b6000604082019050611003600083018561090d565b611010602083018461090d565b939250505056fea26469706673582212202f98be4229090f3ec78f0f65481980d0551e41737625bf2cee79510776891e6b64736f6c63430008180033",
  "linkReferences": {},
  "deployedLinkReferences": {}
}